:100000000C941B010C94D70B0C94FE0B0C94430125
:100010000C9443010C9443010C9445060C94430149
:100020000C9443010C9443010C9443010C94430140
:100030000C9443010C944C010C9443010C94430127
:100040000C94250C0C9443010C94AD0E0C94DF0E13
:100050000C9443010C9443010C9443010C94430110
:100060000C941D070C94430108000000BE92244923
:10007000123EABAAAA2ABECDCCCC4C3E00000080DA
:10008000BEABAAAAAA3E00000000BF000000803F4D
:100090000000000000084178D3BB4387D1133D190D
:1000A0000E3CC3BD4282AD2B3E68EC8276BED98F3A
:1000B000E1A93E4C80EFFFBE01C4FF7F3F0000007E
:1000C000000007634236B79BD8A71A39685618AEA6
:1000D000BAAB558C1D3CB7CC5763BD6DEDFD753E7D
:1000E000F6177231BF000000803F005EBCE2613F46
:1000F000DD83C29C7E20A3FD1F419DC3217FFCA206
:10010000401E5F01E3BD3E6082DC237D9FC1421C37
:10011000FEA0E1BF5D0380DE3C62BEE0025CDF81E9
:10012000633D7C22C09E1D43A1FF4618FAA4277997
:100130009BC584DA3866E5BB5907DB856739BAE4C5
:1001400006581947A5FB7826C49A653BD987045AF7
:10015000B8E6A7F91B45C6987A24F8A6441A99C7A9
:10016000257B3A6486D85B05E7B98CD2306EEDB357
:10017000510F4E10F2AC2F7193CD114FADF3702E85
:10018000CC92D38D6F31B2EC0E50AFF1134DCE90B7
:10019000722C6D33D18F0C52B0EE326C8ED0530D69
:1001A000EFB1F0AE4C1291CF2D73CA947628ABF517
:1001B00017490856B4EA6937D58B5709EBB5366845
:1001C0008AD495CB2977F4AA4816E9B7550B88D677
:1001D000346A2B7597C94A14F6A8742AC896154B29
:1001E000A9F7B6E80A54D7896B3501020408102034
:1001F00040800102040810200102040810200404B9
:1002000004040404040402020202020203030303BE
:100210000303000000002300260029000000000066
:10022000250028002B0000000000240027002A00E1
:100230003606F0060F0F11241FBECFEFD8E0DEBF49
:10024000CDBF14E0A0E0B1E0E4ECFAE202C005901A
:100250000D92A836B107D9F725E0A8E6B4E001C0B1
:100260001D92AE3FB207E1F712E0C6E3D2E004C050
:100270002297FE010E945C15C033D107C9F70E9486
:100280007C110C9460150C940000DC01ED91FC9144
:100290000190F081E02D09941F920F920FB60F92FA
:1002A00011242F933F934F935F936F937F938F937B
:1002B0009F93AF93BF93EF93FF93809176049091B8
:1002C00077048D339105D9F4809170049091710475
:1002D00090937304809372048EE00E94120D9093A9
:1002E000710480937004109277041092760481E078
:1002F0008093780485B190E2892785B905C001967D
:100300009093770480937604FF91EF91BF91AF9122
:100310009F918F917F916F915F914F913F912F911D
:100320000F900FBE0F901F901895CF92DF92EF9213
:10033000FF92CF93DF93EC016FEF73E0681B790BB3
:10034000882777FD8095982F0E94901220E030E05A
:1003500040EA50E40E9489136B017C01BE018827AA
:1003600077FD8095982F0E9490129B01AC01C701E8
:10037000B6010E94F511DF91CF91FF90EF90DF90D1
:10038000CF900895CF92DF92EF92FF921F93CF9379
:10039000DF93182FC2E3D0E0C12CD12C7601812F3E
:1003A0000E94120D0E9495019B01AC01C701B6018C
:1003B0000E948D116B017C0164EF71E080E090E0A0
:1003C0000E94920C219759F720E030E048E452E473
:1003D000C701B6010E94F5112EEA37E44DE151E460
:1003E0000E94F511DF91CF911F91FF90EF90DF9068
:1003F000CF90089526E040E855E260E070E081E6A5
:1004000095E00E944B0E63E371E081E695E00E9467
:100410009D0F6DE371E081E695E00E949D0F67E21C
:1004200072E081E695E00E949D0F6EE070E088E644
:1004300094E00E94810862E372E081E695E00E9408
:10044000900F82E090E00E94C201609306017093D9
:100450000701809308019093090162E472E081E64C
:1004600095E00E94900F6AE572E081E695E00E94B7
:10047000900F409106015091070160910801709121
:10048000090122E030E081E695E00E9479116EE5F5
:1004900072E081E695E00E94900F6AE574E081E6E3
:1004A00095E00C94900FCF92DF92EF92FF921F9302
:1004B000CF93DF93182FC5E0D0E0C12CD12C76016B
:1004C000812F0E94120D0E9495019B01AC01C70172
:1004D000B6010E948D116B017C0162E370E080E047
:1004E00090E00E94920C219759F720E030E040EA1A
:1004F00050E4C701B6010E94F511DF91CF911F9121
:10050000FF90EF90DF90CF900895CF93DF93EA01B3
:100510000E9449132C813D814E815F810E948C1184
:10052000288539854A855B850E94F51128813981A6
:100530004A815B810E948D119B01AC0160E070E0FB
:1005400080E291E40E94EC130E945D12CB01DF91E6
:10055000CF9108954F925F926F927F928F929F9268
:10056000AF92BF92CF92DF92EF92FF920F931F93C1
:10057000CF93DF93CDB7DEB76C970FB6F894DEBF9D
:100580000FBECDBF8EE00E94120D8C0188E694E074
:100590000E94060990930501809304018CE794E082
:1005A0000E94C509698F7A8F8B8F9C8FBE01635F14
:1005B0007F4F8DE794E00E94320B81110DC063E6FE
:1005C00072E081E695E00E949D0F81E695E00E9431
:1005D000990F8DE794E039C166E772E081E695E016
:1005E0000E94900F4E0185E1880E911CFE013D9600
:1005F0007F0160E270E081E695E00E944501F7012D
:1006000061917F0140E150E081E695E00E94871012
:10061000E814F90471F767E0CE010D960E94CA0B49
:100620009C89891719F06CE772E021C081E695E09A
:100630000E94990F8D85823281F0883259F0803185
:10064000A1F46EE872E081E695E00E949D0FDD2442
:10065000D39412C06FE972E002C060EB72E081E6F1
:1006600095E00E949D0FD12C07C060EC72E081E6FE
:1006700095E00E949D0FE3C28DE794E00E94DA09A5
:10068000BE01635F7F4F8DE794E00E94D50A41E091
:1006900064E48DE794E00E94770A68EE73E080E0FE
:1006A00090E00E94920C8DE794E00E94DA09F82E07
:1006B000BE01635F7F4F8DE794E00E94D50A40E062
:1006C0006EEB8DE794E00E94770A67EE72E081E6B8
:1006D00095E00E94900F40E150E06F2D81E695E09B
:1006E0000E94871061E173E081E695E00E94900F1F
:1006F0003E01FAE06F0E711CCE0101967C018DE780
:1007000094E00E94B90AF70181937F0140E150E033
:10071000682F81E695E00E94871061E173E081E631
:1007200095E00E94900FE614F70449F761EF72E03C
:1007300081E695E00E94900F68E0CE0101960E944C
:10074000CA0B40E150E0682F81E695E00E948710D7
:1007500081E695E00E94990F6A8170E0762F662706
:100760008981682BDD2091F0A3E0660F771FAA95A1
:10077000E1F788858031F1F4CB01807F2F816CE037
:1007800070E0621B7109680F791F14C08D8180763B
:1007900031F4F3E0660F771FFA95E1F70BC0803272
:1007A00029F4660F771F660F771F04C0803411F499
:1007B000660F771F80E090E00E948E1220E030E00C
:1007C00040E85DE30E9489136B017C0126E636E672
:1007D00046EE5FE30E94891320E030E040E052E4FF
:1007E0000E948D116D8B7E8B8F8B988F67EF72E0DF
:1007F00081E695E00E94900F22E030E0B701A6016B
:1008000081E695E00E94791168E073E081E695E069
:100810000E94900F22E030E04D895E896F89788DCB
:1008200081E695E00E94791163E173E081E695E04D
:100830000E949D0FBE01635F7F4F8BE894E00E9492
:10084000320B811109C08BE894E00E94FD0A6AEF27
:1008500070E080E090E0F1C1CE010D965C0160E2B5
:1008600070E081E695E00E944501F50161915F012C
:1008700040E150E081E695E00E948710A814B90499
:1008800071F767E0CE010D960E94CA0B9C8989130F
:10089000CACE81E695E00E94990F8D85823241F0A3
:1008A000883231F0803109F0CAC19924939401C093
:1008B000912C8BE894E00E94DA09BE01635F7F4FC0
:1008C0008BE894E00E94D50A41E064E48BE894E070
:1008D0000E94770A68EE73E080E090E00E94920C3C
:1008E0008BE894E00E94DA09BE01635F7F4F8BE8DA
:1008F00094E00E94D50A40E06EEB8BE894E00E9401
:10090000770ACE0101965C018BE894E00E94B90A57
:10091000F50181935F0140E150E0682F81E695E0A9
:100920000E94871061E173E081E695E00E94900FDC
:10093000A614B70449F761EF72E081E695E00E94E2
:10094000900F68E0CE0101960E94CA0B40E150E092
:10095000682F81E695E00E94871081E695E00E946D
:10096000990F6A8170E0762F66278981682B99201C
:1009700091F033E0660F771F3A95E1F78885803173
:10098000F1F4CB01807F2F816CE070E0621B710974
:10099000680F791F14C08D81807631F423E0660FD3
:1009A000771F2A95E1F70BC0803229F4660F771F75
:1009B000660F771F04C0803411F4660F771F80E044
:1009C00090E00E948E1220E030E040E85DE30E945B
:1009D00089134B015C0126E636E646EE5FE30E9492
:1009E000891320E030E040E052E40E948D112B0199
:1009F0003C0167EF72E081E695E00E94900F22E0F3
:100A000030E0B501A40181E695E00E94791168E02B
:100A100073E081E695E00E94900F22E030E0B301A0
:100A2000A20181E695E00E94791163E173E081E61D
:100A300095E00E949D0F6FE173E081E695E00E94D2
:100A4000900F60E373E081E695E00E94900F60E50F
:100A500073EC80E090E00E94920C22E030E0B5015F
:100A6000A40181E695E00E94791164E373E081E6D8
:100A700095E00E94900F22E030E0B301A20181E6F0
:100A800095E00E94791164E373E081E695E00E94AD
:100A9000900F22E030E0B701A60181E695E00E94C8
:100AA000791164E373E081E695E00E94900F22E003
:100AB00030E04D895E896F89788D81E695E00E94EE
:100AC000791164E373E081E695E00E94900FB8012C
:100AD000882777FD8095982F0E94901220E030E0C3
:100AE00040E85AE30E94891320E030E040EA50E4F5
:100AF0000E94891320E030E049E453E40E94F5119C
:100B000020E030E44CE156E40E9489132FE832ECF7
:100B10004DEE50E40E94F511AB01BC0121E030E044
:100B200081E695E00E94791164E373E081E695E047
:100B30000E94900F22E030E0498D5A8D6B8D7C8DA4
:100B400081E695E00E94791164E373E081E695E027
:100B50000E94900F83E10E94120D4AE050E0BC0118
:100B600081E695E00E94481064E373E081E695E039
:100B70000E94900F82E090E00E94530220910601B3
:100B80003091070140910801509109010E94F5112F
:100B900042E251E00E9485024AE050E0BC0181E659
:100BA00095E00E94481064E373E081E695E00E94BE
:100BB000900F82E090E00E94530220910601309154
:100BC000070140910801509109010E94F51146E189
:100BD00051E00E9485024AE050E0BC0181E695E0C8
:100BE0000E94481064E373E081E695E00E94900F54
:100BF00082E090E00E9453022091060130910701AB
:100C000040910801509109010E94F5114AE051E01C
:100C10000E9485024AE050E0BC0181E695E00E9416
:100C2000501081E695E00E94990F81E695E00E94C0
:100C3000990F68E873E180E090E00E94920C6C9656
:100C40000FB6F894DEBF0FBECDBFDF91CF911F91DD
:100C50000F91FF90EF90DF90CF90BF90AF909F905B
:100C60008F907F906F905F904F90089563E08BE836
:100C700094E00E940F0B65E08DE794E00E940F0B5B
:100C800064E08CE794E00C949C091F920F920FB6DD
:100C90000F9211248F9388E10FB6F894809360002F
:100CA000109260000FBE8F910F900FBE0F901F909B
:100CB00018958091C80490E02091C904821B910985
:100CC00008952091C9048091C804281750F4E22F98
:100CD000F0E0E653FB4F808190E02F5F2093C90442
:100CE00008958FEF9FEF0895E091C9048091C804A3
:100CF000E81730F4F0E0E653FB4F808190E0089570
:100D00008FEF9FEF08950895CF92DF92EF92FF92B9
:100D10000F931F93CF93DF937C01CB018A01209126
:100D2000A504222389F0EB016B01C40ED51ECC155E
:100D3000DD0569F06991D701ED91FC910190F08199
:100D4000E02DC7010995F3CF642F0E94F406C80176
:100D5000DF91CF911F910F91FF90EF90DF90CF9097
:100D60000895CF93DF931F92CDB7DEB769832091AB
:100D7000A5042223D1F02091A604203240F021E0E6
:100D800030E0FC013383228380E090E015C0809145
:100D9000A704E82FF0E0E855FB4F998190838F5F1F
:100DA0008093A7048093A60405C061E0CE0101965C
:100DB0000E94F40681E090E00F90DF91CF910895BA
:100DC000FC011382128248EE53E060E070E044833D
:100DD0005583668377838AE393E0918380830895C4
:100DE00089E994E00C94E006613298F4209157056B
:100DF000243089F460930C05FC018EE095E0DC0161
:100E00002A2F281B261718F421912D93F9CF80E063
:100E1000089581E0089582E0089585ED8093BC00F7
:100E20008091BC0084FDFCCF10925705089585EC9D
:100E30008093BC001092570508951F920F920FB631
:100E40000F9211242F933F934F935F936F937F9350
:100E50008F939F93AF93BF93EF93FF938091B900CC
:100E6000887F803609F49EC078F5883209F45DC029
:100E700090F4803109F456C038F4882309F4F5C0A1
:100E8000883009F44FC0F5C0883109F44EC0803273
:100E900009F45FC0EEC0803409F46AC058F48033AE
:100EA00009F457C0883309F0E4C08093EA040E9433
:100EB0001707DFC0803509F44FC0883509F45DC0DD
:100EC000883409F0D6C0D3C0883909F4C4C0A8F466
:100ED000883709F467C038F4883609F463C080376E
:100EE00009F460C0C6C0883809F4B5C0803909F477
:100EF0005FC0803809F0BDC05BC0803B09F483C08F
:100F000038F4803A09F466C0883A09F47CC0B1C06C
:100F1000803C09F4A4C0883C09F4A1C0883B09F4D2
:100F200087C0A7C08091560510C090912F05809171
:100F30002E05981770F5E0912F0581E08E0F8093B4
:100F40002F05F0E0E05DFA4F80818093BB0085ECD7
:100F500083C08093EA048BC0E0912F0581E08E0F5F
:100F600080932F058091BB00F0E0E05DFA4F808315
:100F700090912F0580912E056BC0E0912F0581E0A7
:100F80008E0F80932F058091BB00F0E0E05DFA4F5B
:100F900080838091550581116AC081E0809354055A
:100FA00084EA5EC083E0809357051092EB04CFCFB4
:100FB0008091EB04803208F04EC0E091EB0481E0B8
:100FC0008E0F8093EB048091BB00F0E0E451FB4F67
:100FD0008083BDCF0E9417078091EB04803230F4EC
:100FE000E091EB04F0E0E451FB4F10826091EB04E0
:100FF00070E0E0915005F09151058CEE94E0099578
:101000001092EB0436C084E08093570510920D05D2
:1010100010920C05E0915205F091530509958091CD
:101020000C05811105C081E080930C0510920E051E
:10103000E0910D0581E08E0F80930D05F0E0E25FF9
:10104000FA4F80818093BB0090910D0580910C0533
:10105000981708F47CCF85E88093BC000AC085EC23
:101060008093BC001092570504C01092EA040E94BD
:101070000D07FF91EF91BF91AF919F918F917F915C
:101080006F915F914F913F912F910F900FBE0F90F5
:101090001F901895CF93DF93EC01688179818C853F
:1010A0009D856639710501F50E941015AB01662713
:1010B00057FD6095762F4A835B836C837D831D8605
:1010C0001C8666E473E081E695E00E94900F4A81F9
:1010D0005B816C817D812AE030E081E695E00E94B1
:1010E0006810198218820AC028853985280F391F8F
:1010F0003D872C876F5F7F4F79836883DF91CF9126
:1011000008950F931F93CF93DF93EC01862F6A8B83
:101110007B8B60E00E942F0D68EB7BE080E090E02D
:101120000E94920C61E673E081E695E00E949D0FBB
:1011300060E27EE480E090E00E94920C8A890E9446
:10114000120D9F838E8361E773E081E695E00E9434
:101150009D0F6E817F814AE050E081E695E00E941C
:10116000501001E015E08E819F810097D9F10B9717
:10117000833123E09207C0F48EE00E94120D99871C
:1011800088879B878A87AC01662757FD6095762FF5
:101190004A835B836C837D8369E873E081E695E035
:1011A0000E949D0F198A1EC083319340D9F067E9D0
:1011B00073E081E695E00E949D0F60E67AEE80E0A4
:1011C00090E00E94920C8EE00E94120D9F838E830D
:1011D000115049F6098B6BEC73E081E695E00E94B3
:1011E0009D0FC0CF1092800082E08093810081E04B
:1011F00080936F0069ED73E081E695E00E949D0F9A
:101200007894DF91CF911F910F910895CF93DF9341
:10121000EC018889882309F48AC0288539858A8564
:101220009B85F901E81BF90BE13981E0F80724F40B
:101230002D3B82E038076CF067EE73E081E695E0C5
:101240000E949D0F188ACE010E944A0880E090E01B
:1012500070C0A901662757FD6095762F8A819B8112
:10126000AC81BD81481B590B6A0B7B0B473951057B
:1012700061057105DCF06CE074E081E695E00E94A8
:10128000900F688579854AE050E081E695E00E94FC
:1012900048106AE174E081E695E00E949D0F188A8B
:1012A000CE010E944A0881E090E043C0E93CF1058C
:1012B0001CF02C3B324029F4433351056105710584
:1012C000DCF06CE074E081E695E00E94900F6885A8
:1012D00079854AE050E081E695E00E9448106CE292
:1012E00074E081E695E00E949D0F188ACE010E946D
:1012F0004A0882E090E01DC0CE010E944A086CE0DE
:1013000074E081E695E00E94900F688579854AE057
:1013100050E081E695E00E9448106DE374E081E6BC
:1013200095E00E949D0F188A83E090E002C08FEF45
:101330009FEFDF91CF910895FC0160830895FC0138
:1013400080810E94120DBC01882777FD8095982F1F
:101350000E9490129B01AC0160E070EC8FE794E476
:101360000E94F51120E030E040EA50E40E94891329
:1013700020E030E040E85FE30E948C1120E030E0A4
:1013800040E251E40E94891308950E949F0920E0E1
:1013900030E047E853E40E94F5112EED37E341E3D6
:1013A00050EC0E94EC1322E434E349EE52E40E9434
:1013B00089130895FF920F931F93CF93DF93FC013E
:1013C0000081C181D281F8948981F02EF0948F211F
:1013D000898378941DE7115029F182E090E00E9402
:1013E000CC0C88818023B9F3F8948A818F218A8379
:1013F0008981802B8983789480EE91E00E94CC0CC7
:10140000F89489818F21898386E490E00E94CC0C36
:101410008881802311E009F010E078948AE991E056
:101420000E94CC0C812FDF91CF911F910F91FF90E3
:1014300008951F93CF93DF93FC011081C181D28166
:10144000912F909560FF12C0F8948A8189238A8336
:101450008981812B89838AE090E00E94CC0C8A816B
:10146000812B8A83789487E390E011C0F8948A8175
:1014700089238A838981812B898381E490E00E947A
:10148000CC0C8A81812B8A83789485E090E0DF916F
:10149000CF911F910C94CC0C0F931F93CF93DF939C
:1014A000FC011081C181D281F8948981812B8983CB
:1014B0008A81012F009580238A8383E090E00E9437
:1014C000CC0C8981802389838AE090E00E94CC0C37
:1014D000C881789485E390E00E94CC0C1C2381E0C5
:1014E00009F480E0DF91CF911F910F910895CF9281
:1014F000DF92EF92FF920F931F93CF93DF931F9290
:10150000CDB7DEB76C01E62E08E010E0FF24F394BF
:1015100061E09F2D9E2109F460E0C60149830E948D
:10152000190AFF0C0150110949810115110581F7B4
:10153000411115C0F894D6011196ED91FC911297C6
:1015400091818C918095892381831196ED91FC91F5
:10155000129792818C9180958923828378940F9041
:10156000DF91CF911F910F91FF90EF90DF90CF907F
:101570000895EF92FF920F931F93CF93DF938C0107
:10158000C8E0D0E0F12CEE24E394C8010E944C0A9C
:101590008111FE28EE0C2197C1F78F2DDF91CF919D
:1015A0001F910F91FF90EF900895CF92DF92FF92DD
:1015B0000F931F93CF93DF931F92CDB7DEB78C01AC
:1015C000F62E40E065E579830E94770ACF2C798179
:1015D000D72E88E0F82EF60161916F0140E0C80136
:1015E0000E94770AFA94B9F70F90DF91CF911F917B
:1015F0000F91FF90DF90CF900895FC011386158620
:10160000148627E030E0DF01A20FB31F13961C926F
:101610002115310519F021503109F5CF08951F9397
:10162000CF93DF93EC01162F60E0812F0E942F0DE6
:10163000612F70E0FB01E651FE4FE491E883FB016E
:10164000E250FE4FE491F0E0EE0FFF1FEE5EFD4F23
:10165000859194919A838983CE01DF91CF911F91D7
:101660000C94FD0AAF92BF92CF92DF92EF92FF925D
:101670000F931F93CF93DF931F92CDB7DEB75C011B
:10168000E62ED72EFC01858581115DC0C5010E9423
:10169000DA09811105C0F5011386158614866EC01E
:1016A00040E060EFC5010E94770A01E0F12CC12CF7
:1016B00011E0C5010E944C0A682FC50169830E9490
:1016C0004C0A6981613019F48130B9F433C02F2D8F
:1016D00030E068131BC0F5018385181730F4E20F62
:1016E000F31F8381802349F402C0181731F060E0B2
:1016F000193058F4F501148708C0F501EF0DF11DFC
:101700008381802B838361E009C0C12EF501E20F44
:10171000F31F8381902F909589238383C5010E94B5
:10172000190A1F5F000F11F4F39401E0F7E0FF15B1
:1017300008F0BFCF113438F0F501C386C11018C0CE
:1017400081E0858715C0F50113861586148680E033
:10175000EE2DFD2D20E030E0D501A20FB31F139632
:101760009C9191932F5F3F4F28303105A9F706C018
:10177000F5018381882339F381E0EACF0F90DF916F
:10178000CF911F910F91FF90EF90DF90CF90BF907E
:10179000AF900895DC0180E0615038F0ED91E827CA
:1017A000F0E0E651FF4F8491F7CF089508951F921E
:1017B0000F920FB60F9211242F933F934F935F9385
:1017C0006F937F938F939F93AF93BF93EF93FF9309
:1017D000E0912E01F0912F010995FF91EF91BF91BA
:1017E000AF919F918F917F916F915F914F913F91B9
:1017F0002F910F900FBE0F901F9018951F920F9270
:101800000FB60F9211242F933F934F935F936F93D3
:101810007F938F939F93AF93BF93EF93FF93E09149
:101820003001F09131010995FF91EF91BF91AF9196
:101830009F918F917F916F915F914F913F912F91E8
:101840000F900FBE0F901F9018951F920F920FB61A
:101850000F9211242F933F938F939F93AF93BF9336
:101860008091590590915A05A0915B05B0915C0556
:101870003091580523E0230F2D3720F40196A11D48
:10188000B11D05C026E8230F0296A11DB11D2093AE
:1018900058058093590590935A05A0935B05B09322
:1018A0005C0580915D0590915E05A0915F05B0910A
:1018B00060050196A11DB11D80935D0590935E05A5
:1018C000A0935F05B0936005BF91AF919F918F91F9
:1018D0003F912F910F900FBE0F901F9018953FB71B
:1018E000F89480915D0590915E05A0915F05B0919F
:1018F000600526B5A89B05C02F3F19F00196A11DD4
:10190000B11D3FBF6627782F892F9A2F620F711D57
:10191000811D911D42E0660F771F881F991F4A9510
:10192000D1F708958F929F92AF92BF92CF92DF929C
:10193000EF92FF926B017C010E946F0C4B015C01E6
:10194000C114D104E104F104F1F00E948B110E9452
:101950006F0C681979098A099B09683E73408105F3
:10196000910570F321E0C21AD108E108F10888EE70
:10197000880E83E0981EA11CB11CC114D104E1049F
:10198000F10429F7DDCFFF90EF90DF90CF90BF906B
:10199000AF909F908F9008958230910538F0880F16
:1019A000991F880F991F05970197F1F7089578946B
:1019B00084B5826084BD84B5816084BD85B5826054
:1019C00085BD85B5816085BDEEE6F0E080818160F2
:1019D0008083E1E8F0E010828081826080838081F2
:1019E00081608083E0E8F0E0808181608083E1EBCA
:1019F000F0E0808184608083E0EBF0E080818160B2
:101A00008083EAE7F0E08081846080838081826067
:101A10008083808181608083808180688083109250
:101A2000C10008958E3008F08E50877020913201E9
:101A300090E4299F90011124822B80937C00809157
:101A40007A00806480937A0080917A0086FDFCCFD2
:101A5000809178002091790090E0922B0895CF93A7
:101A6000DF9390E0FC01E651FE4F2491FC01E2502F
:101A7000FE4F8491882349F190E0880F991FFC0163
:101A8000EA5DFD4FA591B491845E9D4FFC01C59127
:101A9000D4919FB7611108C0F8948C91209582234E
:101AA0008C93888182230AC0623051F4F8948C911F
:101AB000322F309583238C938881822B888304C0B6
:101AC000F8948C91822B8C939FBFDF91CF910895D6
:101AD000FC01818D228D90E0805C9F4F821B9109DB
:101AE0008F7399270895FC01918D828D981731F09D
:101AF000828DE80FF11D858D90E008958FEF9FEFA7
:101B00000895FC01918D828D981761F0828DDF011F
:101B1000A80FB11D5D968C91928D9F5F9F73928FE0
:101B200090E008958FEF9FEF089585E09FE0892B67
:101B300049F080E090E0892B29F00E94050F811187
:101B40000C9400000895FC01848DDF01A80FB11DE5
:101B5000A35ABF4F2C91848D90E001968F739927E3
:101B6000848FA689B7892C93A089B1898C918064D0
:101B70008C93938D848D981306C00288F389E02D91
:101B800080818F7D80830895CF93DF93EC01888DD2
:101B90008823C9F0EA89FB89808185FD05C0A88971
:101BA000B9898C9186FD0FC00FB607FCF5CF8081F7
:101BB00085FFF2CFA889B9898C9185FFEDCFCE0141
:101BC0000E94A30DE7CFDF91CF910895CF92DF92CE
:101BD000FF920F931F93CF93DF931F92CDB7DEB782
:101BE0006C0181E0D60158968C9358975B969C9136
:101BF0005B975C968C915C97981307C05096ED911B
:101C0000FC915197808185FD2EC0F601038D10E077
:101C10000F5F1F4F0F731127F02EF601848DF812FE
:101C200011C00FB607FCF9CFD6015096ED91FC918B
:101C30005197808185FFF1CFC60169830E94A30D72
:101C40006981EBCF838DE80FF11DE35AFF4F60836D
:101C5000D6015B960C935B975296ED91FC9153974E
:101C6000808180620CC0D6015696ED91FC91579709
:101C700060835096ED91FC915197808180648083C0
:101C800081E090E00F90DF91CF911F910F91FF9035
:101C9000DF90CF900895BF92CF92DF92EF92FF92A4
:101CA000CF93DF93EC016A017B01B22EE889F989B9
:101CB00082E08083411581EE580761057105A1F02E
:101CC00060E079E08DE390E0A70196010E94241581
:101CD0002150310941095109569547953795279566
:101CE000211580E1380798F0E889F989108260E8C9
:101CF00074E88EE190E0A70196010E94241521501E
:101D00003109410951095695479537952795EC8535
:101D1000FD853083EE85FF852083188EEC89FD8953
:101D2000B082EA89FB89808180618083EA89FB89AE
:101D3000808188608083EA89FB89808180688083D4
:101D4000EA89FB8980818F7D8083DF91CF91FF902D
:101D5000EF90DF90CF90BF9008951F920F920FB633
:101D60000F9211242F938F939F93EF93FF93E09102
:101D70007105F09172058081E0917705F091780509
:101D800082FD12C0908180917A058F5F8F732091C0
:101D90007B05821751F0E0917A05F0E0EF59FA4F98
:101DA000958F80937A0501C08081FF91EF919F917B
:101DB0008F912F910F900FBE0F901F9018951F922B
:101DC0000F920FB60F9211242F933F934F935F936F
:101DD0006F937F938F939F93AF93BF93EF93FF93F3
:101DE00081E695E00E94A30DFF91EF91BF91AF9125
:101DF0009F918F917F916F915F914F913F912F9123
:101E00000F900FBE0F901F90189581E695E00E94ED
:101E1000680D21E0892B09F420E0822F08951092AB
:101E200064051092630588EE93E0A0E0B0E0809333
:101E3000650590936605A0936705B09368058DE4EA
:101E400094E0909362058093610585EC90E0909317
:101E50006E0580936D0584EC90E0909370058093FF
:101E60006F0580EC90E0909372058093710581EC92
:101E700090E0909374058093730582EC90E09093CA
:101E800076058093750586EC90E0909378058093B5
:101E9000770510927A0510927B0510927C051092BE
:101EA0007D050895CF92DF92EF92FF920F931F93DB
:101EB000CF93DF937C016A01EB0100E010E00C1589
:101EC0001D0571F06991D701ED91FC910190F081B0
:101ED000E02DC7010995892B19F00F5F1F4FEFCF38
:101EE000C801DF91CF911F910F91FF90EF90DF908C
:101EF000CF9008956115710581F0DB010D900020F0
:101F0000E9F7AD0141505109461B570BDC01ED913A
:101F1000FC910280F381E02D099480E090E0089527
:101F20000C947A0FDC01ED91FC910190F081E02D91
:101F3000099469E574E00C947A0F0F931F93CF9383
:101F4000DF93EC010E947A0F8C01CE010E94990F61
:101F5000800F911FDF91CF911F910F9108958F9264
:101F60009F92AF92BF92DF92EF92FF920F931F93D7
:101F7000CF93DF93CDB7DEB7A1970FB6F894DEBF4E
:101F80000FBECDBF7C01F42FD52ECB0119A222307C
:101F900008F42AE08E010F5D1F4F822E912CA12C98
:101FA000B12C6F2F7D2DA50194010E942415F22FD5
:101FB000D32ECA01015011096A3014F4E0E301C0C4
:101FC000E7E3E60FD801EC93232B242B252B49F7CD
:101FD000B801C7010E947A0FA1960FB6F894DEBF30
:101FE0000FBECDBFDF91CF911F910F91FF90EF906A
:101FF000DF90BF90AF909F908F900895CF92DF9227
:10200000EF92FF920F931F93CF93DF93EC016A013E
:102010007B012115310579F4E881F9810190F08186
:10202000E02D642FDF91CF911F910F91FF90EF90E2
:10203000DF90CF9009942A303105E9F477FF1AC078
:102040006DE20E94920F8C0144275527BA014C196A
:102050005D096E097F092AE0CE010E94AF0F800F53
:10206000911FDF91CF911F910F91FF90EF90DF9023
:10207000CF9008952AE0B701A601CE01DF91CF915C
:102080001F910F91FF90EF90DF90CF900C94AF0FC6
:102090009A01AB01662757FD6095762F0C94FE0FD1
:1020A0000F931F93CF93DF93EC019A01AB01662747
:1020B00057FD6095762F0E94FE0F8C01CE010E9485
:1020C000990F800F911FDF91CF911F910F9108956C
:1020D0000F931F93CF93DF93EC010E94FE0F8C01AF
:1020E000CE010E94990F800F911FDF91CF911F9118
:1020F0000F9108952115310541F4DC01ED91FC911A
:102100000190F081E02D642F09940C94AF0F9A0197
:10211000462F50E060E070E00C947A104F925F928E
:102120006F927F928F929F92AF92BF92CF92DF92E7
:10213000EF92FF920F931F93CF93DF93EC016A010D
:102140007B01B22E9A01AB01C701B6010E9438147F
:10215000882319F06CE574E027C026013701E89464
:1021600077F82FEF3FEF4FE75FE7C301B2010E941F
:10217000381481110DC02FEF3FEF4FE75FE7C30128
:10218000B2010E94F11118161CF460E674E00CC054
:102190002FEF3FEF4FE75FE4C701B6010E94401306
:1021A0001816ACF464E674E0CE01DF91CF911F9174
:1021B0000F91FF90EF90DF90CF90BF90AF909F90E6
:1021C0008F907F906F905F904F900C947A0F2FEFCD
:1021D0003FEF4FE75FECC701B6010E94F11187FDA9
:1021E000E1CF20E030E0A901C701B6010E94F11162
:1021F00087FF0AC06DE2CE010E94920F8C01F7FAB0
:10220000F094F7F8F09402C000E010E0A12C60E038
:1022100070E080E09FE3AB1441F020E030E040E26A
:1022200051E40E94F511A394F6CF9B01AC01C701C4
:10223000B6010E948D116B017C010E9462122B017C
:102240003C010E948E129B01AC01C701B6010E94A5
:102250008C116B017C012AE0B301A201CE010E9426
:10226000AF0F080F191FBB2039F067E873E0CE01EC
:102270000E947A0F080F191F7B2C772041F120E074
:1022800030E040E251E4C701B6010E9489136B01BE
:102290007C010E945D124B01AA2497FCA094BA2CE9
:1022A0002AE030E0B501A401CE010E94FE0F080F24
:1022B000191FC501B4010E9490129B01AC01C70116
:1022C000B6010E948C116B017C017A94D6CFC801B3
:1022D000DF91CF911F910F91FF90EF90DF90CF9002
:1022E000BF90AF909F908F907F906F905F904F9036
:1022F00008950C948E1008950E94D70C0E947B11B3
:102300000E94FA01C5E9DDE00E94AA022097E1F3EC
:102310000E94950DF9CF08955058BB27AA270ED0DB
:1023200075C166D130F06BD120F031F49F3F11F4CC
:102330001EF45BC10EF4E095E7FB51C1E92F77D1A4
:1023400080F3BA17620773078407950718F071F4D2
:102350009EF58FC10EF4E0950B2EBA2FA02D0B0128
:10236000B90190010C01CA01A0011124FF27591BDA
:1023700099F0593F50F4503E68F11A16F040A22FE0
:10238000232F342F4427585FF3CF46953795279551
:10239000A795F0405395C9F77EF41F16BA0B620B50
:1023A000730B840BBAF09150A1F0FF0FBB1F661F97
:1023B000771F881FC2F70EC0BA0F621F731F841FDA
:1023C00048F4879577956795B795F7959E3F08F000
:1023D000B3CF9395880F08F09927EE0F97958795BF
:1023E0000895D9D008F481E008950CD00FC107D129
:1023F00040F0FED030F021F45F3F19F0F0C05111F1
:1024000039C1F3C014D198F39923C9F35523B1F31B
:10241000951B550BBB27AA2762177307840738F053
:102420009F5F5F4F220F331F441FAA1FA9F333D0B2
:102430000E2E3AF0E0E830D091505040E695001C66
:10244000CAF729D0FE2F27D0660F771F881FBB1F22
:10245000261737074807AB07B0E809F0BB0B802DFC
:10246000BF01FF2793585F4F2AF09E3F510568F048
:10247000B6C000C15F3FECF3983EDCF386957795DC
:102480006795B795F7959F5FC9F7880F911D96954A
:10249000879597F90895E1E0660F771F881FBB1FA6
:1024A000621773078407BA0720F0621B730B840B53
:1024B000BA0BEE1F88F7E095089504D06894B11127
:1024C000D9C00895BCD088F09F5790F0B92F9927B4
:1024D000B751A0F0D1F0660F771F881F991F1AF02F
:1024E000BA95C9F712C0B13081F0C3D0B1E00895F8
:1024F000C0C0672F782F8827B85F39F0B93FCCF379
:10250000869577956795B395D9F73EF49095809524
:10251000709561957F4F8F4F9F4F0895E89409C044
:1025200097FB3EF490958095709561957F4F8F4F06
:102530009F4F9923A9F0F92F96E9BB279395F6951C
:10254000879577956795B795F111F8CFFAF4BB0F9A
:1025500011F460FF1BC06F5F7F4F8F4F9F4F16C0FE
:10256000882311F096E911C0772321F09EE8872F88
:10257000762F05C0662371F096E8862F70E060E044
:102580002AF09A95660F771F881FDAF7880F9695BD
:10259000879597F90895990F0008550FAA0BE0E861
:1025A000FEEF16161706E807F907C0F01216130615
:1025B000E407F50798F0621B730B840B950B39F455
:1025C0000A2661F0232B242B252B21F408950A26BB
:1025D00009F4A140A6958FEF811D811D089597F9FB
:1025E0009F6780E870E060E008959FEF80EC0895B9
:1025F00000240A94161617061806090608950024E2
:102600000A9412161306140605060895092E03945B
:10261000000C11F4882352F0BB0F40F4BF2B11F4CF
:1026200060FF04C06F5F7F4F8F4F9F4F089557FD2E
:102630009058440F551F59F05F3F71F04795880F30
:1026400097FB991F61F09F3F79F0879508951216C7
:1026500013061406551FF2CF4695F1DF08C0161673
:1026600017061806991FF1CF869571056105089424
:102670000895E894BB2766277727CB0197F908953B
:102680008ADF08F48FEF08950EF027C1AECF68946B
:10269000A6CFD5DFC8F39923D1F3C6F3DF93CF9349
:1026A0001F930F93FF92C92FDD2788232AF02197CC
:1026B000660F771F881FDAF720E030E040E85FEB15
:1026C0009FE3883920F0803E30F021968F7725DE19
:1026D000E8E6F0E003C021DEE5E9F0E00CD18B0193
:1026E000BE01EC01FB2E6F5771097595771F880BA2
:1026F000990B16DF28E132E741E35FE316D0AF2DF7
:102700009801AE01FF900F911F91CF91DF9116DEDE
:102710007DCF0BD07BCF6CDF28F071DF18F09523D5
:1027200009F05DCF62CF1124A5CF81DFA0F3959F83
:10273000D1F3950F50E0551F629FF001729FBB27A8
:10274000F00DB11D639FAA27F00DB11DAA1F649F54
:102750006627B00DA11D661F829F2227B00DA11D07
:10276000621F739FB00DA11D621F839FA00D611D8D
:10277000221F749F3327A00D611D231F849F600DAE
:10278000211D822F762F6A2F11249F5750408AF0E7
:10279000E1F088234AF0EE0FFF1FBB1F661F771F73
:1027A000881F91505040A9F79E3F510570F017CFF8
:1027B00061CF5F3FECF3983EDCF3869577956795A4
:1027C000B795F795E7959F5FC1F7FE2B880F911D91
:1027D0009695879597F90895FA01EE0FFF1F3096A9
:1027E0002105310599F16115710561F48038BFE368
:1027F0009B0749F168949038810561F08038BFEFFC
:102800009B0741F0992342F5FF3FE1053105210582
:1028100011F1E8940894E795D901AA2329F4AB2F84
:10282000BE2FF85FD0F310C0FF5F70F4A695E0F7FD
:10283000F73950F019F0FF3A38F49F779F930CD096
:102840000F9007FC905808953EF0CFCE60E070E006
:1028500080E89FE308954FE79F775F934F933F93FF
:102860002F9317DF2F913F914F915F9152DF09C056
:1028700092DE880B990B089519F40EF0B0CEF9CEC4
:10288000B4CEDDDEC8F39638C0F707F80F92E894AF
:102890002BE33AEA48EB5FE74ADF0F920F920F9281
:1028A0004DB75EB70F9289D0E2ECF0E024D04F91A3
:1028B0005F91EF91FF91E595EE1FFF1F49F0FE57E5
:1028C000E0684427EE0F441FFA95E1F74195550B58
:1028D00040D00F9007FE34C008959F3F31F09150D3
:1028E00020F4879577956795B795880F911D9695F4
:1028F000879597F90895DF93CF931F930F93FF92D6
:10290000EF92DF927B018C01689405C0DA2EEF0113
:102910000CDFFE01E894A5912591359145915591E3
:10292000AEF3EF010BDDFE019701A801DA9479F710
:10293000DF90EF90FF900F911F91CF91DF9108955D
:102940009B01AC0160E070E080E89FE34ECD47CE94
:10295000C4CF75DEE8F39923D9F3940F511DBBF36F
:102960009150504094F059F0882332F0660F771F51
:10297000881F91505040C1F79E3F510544F7880F82
:10298000911D9695879597F908955F3FACF0983E15
:102990009CF0BB27869577956795B79508F4B1604D
:1029A0009395C1F7BB0F58F711F460FFE8CF6F5F45
:1029B0007F4F8F4F9F4FE3CF5DCEFA01DC01AA0F0F
:1029C000BB1F9B01AC01BF5728F4222733274427A4
:1029D00050781FC0B75188F4AB2F00244695379527
:1029E0002795011CA395D2F3002069F0220F331F15
:1029F000441FB395DAF30DD08FCC61307105A0E898
:102A00008A07B94630F49B01AC01662777278827EF
:102A10009078309621F02083318342835383089548
:102A200097FB072E16F4009407D077FD09D00E947B
:102A3000461507FC05D03EF4909581959F4F08956B
:102A4000709561957F4F0895A1E21A2EAA1BBB1BBA
:102A5000FD010DC0AA1FBB1FEE1FFF1FA217B3076A
:102A6000E407F50720F0A21BB30BE40BF50B661F80
:102A7000771F881F991F1A9469F760957095809544
:102A800090959B01AC01BD01CF010895AA1BBB1B12
:102A900051E107C0AA1FBB1FA617B70710F0A61B5E
:102AA000B70B881F991F5A95A9F780959095BC017F
:102AB000CD010895EE0FFF1F0590F491E02D0994CC
:042AC000F894FFCFB8
:102AC40001000000FFFF000020413333134014AE27
:102AD400073FAE47E1BE33331340EC51383F7B141C
:102AE400AEBE333313403D0A573ED7A3F0BED60BD8
:102AF400D60B01434C45415244415441004C4142A0
:102B0400454C2C2054696D652C2054696D65205307
:102B1400696E63652053746172742C20446174651A
:102B24002C2054656D7065726174757265206F66D2
:102B34002041697220696E2043656C736975732C3A
:102B44002054656D7065726174757265206F6620BE
:102B540041697220696E2046616872656E686569B4
:102B6400742C2054656D7065726174757265206F84
:102B74006620576174657220696E2043656C7369C1
:102B840075732C2054656D7065726174757265205F
:102B94006F6620576174657220696E2046616872A1
:102BA400656E686569742C2050657263656E742067
:102BB4004F3220436F6E63656E74726174696F6E19
:102BC4002C20434F322070706D2C20496C6C756D35
:102BD400696E616E63652C204C50472C20434F2C4A
:102BE40020536D6F6B6500524553455454494D4510
:102BF400520043616C6962726174696E672E2E2E95
:102C04000A0043616C6962726174696F6E20697352
:102C140020646F6E652E2E2E0A00526F3D006B6F7E
:102C2400686D004E6F206D6F72652061646472651B
:102C3400737365732E00524F4D203D004352432061
:102C44006973206E6F742076616C696421002020A2
:102C540043686970203D206164313853323000206C
:102C64002043686970203D2061643138423230006D
:102C7400202043686970203D20616431383232007D
:102C8400446576696365206973206E6F74206120E2
:102C9400616431387832302066616D696C79206402
:102CA40065766963652E00202044617461203D20AF
:102CB40000204352433D00202054656D70657261CD
:102CC40074757265203D20002043656C73697573CB
:102CD4002C20002046616872656E68656974004442
:102CE4004154412C54494D452C54494D45522C00D6
:102CF400444154452C0000000000B10684065906E6
:102D0400610674068306566F6C5F7374616E64614A
:102D1400726420696E2035206D696E757465733A2E
:102D2400007379735F7374617274696E672E2E2EEB
:102D34000054686520696E697420766F6C746167ED
:102D440065206973202E2E2E0053656E736F7220DA
:102D540072656164792E007761697474696E6720A5
:102D640073656E736F7220696E69742E2E28697490
:102D74002074616B6573203630207365636F6E64F5
:102D84007320746F20696E6974290053656E736FC4
:102D940072204572726F72210054657374206265EB
:102DA40067696E2E2E2E004869676820706F6C6C00
:102DB4007574696F6E2120466F726365207369674D
:102DC4006E616C206163746976652E0073656E7341
:102DD4006F725F76616C75653A00092048696768AF
:102DE40020706F6C6C7574696F6E210009204C6FD4
:102DF4007720706F6C6C7574696F6E2100092041C7
:102E040069722066726573680000000000E60D5266
:102E14000F680D810D730DC40D0D0A006E616E00F7
:082E2400696E66006F7666001E
:00000001FF
